{
  "_format": "hh-sol-artifact-1",
  "contractName": "Crowdfunding",
  "sourceName": "contracts/Contract.sol",
  "abi": [
    {
      "inputs": [
        {
          "internalType": "uint256",
          "name": "",
          "type": "uint256"
        }
      ],
      "name": "campaigns",
      "outputs": [
        {
          "internalType": "address",
          "name": "owner",
          "type": "address"
        },
        {
          "internalType": "string",
          "name": "title",
          "type": "string"
        },
        {
          "internalType": "string",
          "name": "description",
          "type": "string"
        },
        {
          "internalType": "uint256",
          "name": "target",
          "type": "uint256"
        },
        {
          "internalType": "uint256",
          "name": "deadline",
          "type": "uint256"
        },
        {
          "internalType": "uint256",
          "name": "amountCollected",
          "type": "uint256"
        },
        {
          "internalType": "string",
          "name": "image",
          "type": "string"
        },
        {
          "internalType": "bool",
          "name": "isActive",
          "type": "bool"
        }
      ],
      "stateMutability": "view",
      "type": "function"
    },
    {
      "inputs": [
        {
          "internalType": "address",
          "name": "_owner",
          "type": "address"
        },
        {
          "internalType": "string",
          "name": "_title",
          "type": "string"
        },
        {
          "internalType": "string",
          "name": "_description",
          "type": "string"
        },
        {
          "internalType": "uint256",
          "name": "_target",
          "type": "uint256"
        },
        {
          "internalType": "uint256",
          "name": "_deadline",
          "type": "uint256"
        },
        {
          "internalType": "string",
          "name": "_image",
          "type": "string"
        }
      ],
      "name": "createCampaign",
      "outputs": [
        {
          "internalType": "uint256",
          "name": "",
          "type": "uint256"
        }
      ],
      "stateMutability": "nonpayable",
      "type": "function"
    },
    {
      "inputs": [
        {
          "internalType": "uint256",
          "name": "_id",
          "type": "uint256"
        }
      ],
      "name": "donateToCampaign",
      "outputs": [],
      "stateMutability": "payable",
      "type": "function"
    },
    {
      "inputs": [],
      "name": "getCampaigns",
      "outputs": [
        {
          "components": [
            {
              "internalType": "address",
              "name": "owner",
              "type": "address"
            },
            {
              "internalType": "string",
              "name": "title",
              "type": "string"
            },
            {
              "internalType": "string",
              "name": "description",
              "type": "string"
            },
            {
              "internalType": "uint256",
              "name": "target",
              "type": "uint256"
            },
            {
              "internalType": "uint256",
              "name": "deadline",
              "type": "uint256"
            },
            {
              "internalType": "uint256",
              "name": "amountCollected",
              "type": "uint256"
            },
            {
              "internalType": "string",
              "name": "image",
              "type": "string"
            },
            {
              "internalType": "address[]",
              "name": "donators",
              "type": "address[]"
            },
            {
              "internalType": "uint256[]",
              "name": "donations",
              "type": "uint256[]"
            },
            {
              "internalType": "bool",
              "name": "isActive",
              "type": "bool"
            }
          ],
          "internalType": "struct Crowdfunding.Campaign[]",
          "name": "",
          "type": "tuple[]"
        }
      ],
      "stateMutability": "view",
      "type": "function"
    },
    {
      "inputs": [
        {
          "internalType": "uint256",
          "name": "_id",
          "type": "uint256"
        }
      ],
      "name": "getDonators",
      "outputs": [
        {
          "internalType": "address[]",
          "name": "",
          "type": "address[]"
        },
        {
          "internalType": "uint256[]",
          "name": "",
          "type": "uint256[]"
        }
      ],
      "stateMutability": "view",
      "type": "function"
    },
    {
      "inputs": [],
      "name": "numberOfCampaigns",
      "outputs": [
        {
          "internalType": "uint256",
          "name": "",
          "type": "uint256"
        }
      ],
      "stateMutability": "view",
      "type": "function"
    }
  ],
  "bytecode": "0x6080604052600060015534801561001557600080fd5b5061104e806100256000396000f3fe6080604052600436106100555760003560e01c806307ca140d1461005a5780630fa91fa914610083578063141961bc146100b157806342a4fda8146100e55780639943e3a1146100fa578063a6b036331461011a575b600080fd5b34801561006657600080fd5b5061007060015481565b6040519081526020015b60405180910390f35b34801561008f57600080fd5b506100a361009e366004610a17565b61013c565b60405161007a929190610a30565b3480156100bd57600080fd5b506100d16100cc366004610a17565b61020b565b60405161007a989796959493929190610afa565b6100f86100f3366004610a17565b6103f1565b005b34801561010657600080fd5b50610070610115366004610c14565b61053d565b34801561012657600080fd5b5061012f61064e565b60405161007a9190610d41565b600081815260208181526040918290206007810180548451818502810185019095528085526060948594929360080192909184918301828280156101a957602002820191906000526020600020905b81546001600160a01b0316815260019091019060200180831161018b575b50505050509150808054806020026020016040519081016040528092919081815260200182805480156101fb57602002820191906000526020600020905b8154815260200190600101908083116101e7575b5050505050905091509150915091565b600060208190529081526040902080546001820180546001600160a01b03909216929161023790610e65565b80601f016020809104026020016040519081016040528092919081815260200182805461026390610e65565b80156102b05780601f10610285576101008083540402835291602001916102b0565b820191906000526020600020905b81548152906001019060200180831161029357829003601f168201915b5050505050908060020180546102c590610e65565b80601f01602080910402602001604051908101604052809291908181526020018280546102f190610e65565b801561033e5780601f106103135761010080835404028352916020019161033e565b820191906000526020600020905b81548152906001019060200180831161032157829003601f168201915b50505050509080600301549080600401549080600501549080600601805461036590610e65565b80601f016020809104026020016040519081016040528092919081815260200182805461039190610e65565b80156103de5780601f106103b3576101008083540402835291602001916103de565b820191906000526020600020905b8154815290600101906020018083116103c157829003601f168201915b5050506009909301549192505060ff1688565b60008181526020819052604090206009015460ff166104575760405162461bcd60e51b815260206004820152601760248201527f43616d706169676e206973206e6f74206163746976652e00000000000000000060448201526064015b60405180910390fd5b60008181526020819052604090206004015442106104b75760405162461bcd60e51b815260206004820152601d60248201527f43616d706169676e20646561646c696e6520686173207061737365642e000000604482015260640161044e565b6000818152602081815260408220600781018054600181810183559185528385200180546001600160a01b031916331790556008820180549182018155845291832034920182905560058101805492939192849290610517908490610eaf565b909155505060038101546005820154106105385760098101805460ff191690555b505050565b60004283116105a35760405162461bcd60e51b815260206004820152602c60248201527f54686520646561646c696e652073686f756c642062652061206461746520696e60448201526b103a343290333aba3ab9329760a11b606482015260840161044e565b60018054600090815260208190526040902080546001600160a01b0319166001600160a01b038a161781559081016105db8882610f16565b50600281016105ea8782610f16565b506003810185905560048101849055600060058201556006810161060e8482610f16565b5060098101805460ff19166001908117909155805490600061062f83610fd6565b9190505550600180546106429190610fef565b98975050505050505050565b6060600060015467ffffffffffffffff81111561066d5761066d610b71565b6040519080825280602002602001820160405280156106ff57816020015b6106ec60405180610140016040528060006001600160a01b0316815260200160608152602001606081526020016000815260200160008152602001600081526020016060815260200160608152602001606081526020016000151581525090565b81526020019060019003908161068b5790505b50905060005b600154811015610a1157600081815260208181526040918290208251610140810190935280546001600160a01b031683526001810180549193928492908401919061074f90610e65565b80601f016020809104026020016040519081016040528092919081815260200182805461077b90610e65565b80156107c85780601f1061079d576101008083540402835291602001916107c8565b820191906000526020600020905b8154815290600101906020018083116107ab57829003601f168201915b505050505081526020016002820180546107e190610e65565b80601f016020809104026020016040519081016040528092919081815260200182805461080d90610e65565b801561085a5780601f1061082f5761010080835404028352916020019161085a565b820191906000526020600020905b81548152906001019060200180831161083d57829003601f168201915b5050505050815260200160038201548152602001600482015481526020016005820154815260200160068201805461089190610e65565b80601f01602080910402602001604051908101604052809291908181526020018280546108bd90610e65565b801561090a5780601f106108df5761010080835404028352916020019161090a565b820191906000526020600020905b8154815290600101906020018083116108ed57829003601f168201915b505050505081526020016007820180548060200260200160405190810160405280929190818152602001828054801561096c57602002820191906000526020600020905b81546001600160a01b0316815260019091019060200180831161094e575b50505050508152602001600882018054806020026020016040519081016040528092919081815260200182805480156109c457602002820191906000526020600020905b8154815260200190600101908083116109b0575b50505091835250506009919091015460ff16151560209091015283518490849081106109f2576109f2611002565b6020026020010181905250508080610a0990610fd6565b915050610705565b50919050565b600060208284031215610a2957600080fd5b5035919050565b604080825283519082018190526000906020906060840190828701845b82811015610a725781516001600160a01b031684529284019290840190600101610a4d565b5050508381038285015284518082528583019183019060005b81811015610aa757835183529284019291840191600101610a8b565b5090979650505050505050565b6000815180845260005b81811015610ada57602081850181015186830182015201610abe565b506000602082860101526020601f19601f83011685010191505092915050565b6001600160a01b038916815261010060208201819052600090610b1f8382018b610ab4565b90508281036040840152610b33818a610ab4565b90508760608401528660808401528560a084015282810360c0840152610b598186610ab4565b91505082151560e08301529998505050505050505050565b634e487b7160e01b600052604160045260246000fd5b600082601f830112610b9857600080fd5b813567ffffffffffffffff80821115610bb357610bb3610b71565b604051601f8301601f19908116603f01168101908282118183101715610bdb57610bdb610b71565b81604052838152866020858801011115610bf457600080fd5b836020870160208301376000602085830101528094505050505092915050565b60008060008060008060c08789031215610c2d57600080fd5b86356001600160a01b0381168114610c4457600080fd5b9550602087013567ffffffffffffffff80821115610c6157600080fd5b610c6d8a838b01610b87565b96506040890135915080821115610c8357600080fd5b610c8f8a838b01610b87565b9550606089013594506080890135935060a0890135915080821115610cb357600080fd5b50610cc089828a01610b87565b9150509295509295509295565b600081518084526020808501945080840160005b83811015610d065781516001600160a01b031687529582019590820190600101610ce1565b509495945050505050565b600081518084526020808501945080840160005b83811015610d0657815187529582019590820190600101610d25565b60006020808301818452808551808352604092508286019150828160051b87010184880160005b83811015610e5757888303603f19018552815180516001600160a01b0316845261014088820151818a870152610da082870182610ab4565b9150508782015185820389870152610db88282610ab4565b606084810151908801526080808501519088015260a0808501519088015260c080850151888303828a01529193509150610df28382610ab4565b9250505060e08083015186830382880152610e0d8382610ccd565b925050506101008083015186830382880152610e298382610d11565b92505050610120808301519250610e438187018415159052565b509588019593505090860190600101610d68565b509098975050505050505050565b600181811c90821680610e7957607f821691505b602082108103610a1157634e487b7160e01b600052602260045260246000fd5b634e487b7160e01b600052601160045260246000fd5b80820180821115610ec257610ec2610e99565b92915050565b601f82111561053857600081815260208120601f850160051c81016020861015610eef5750805b601f850160051c820191505b81811015610f0e57828155600101610efb565b505050505050565b815167ffffffffffffffff811115610f3057610f30610b71565b610f4481610f3e8454610e65565b84610ec8565b602080601f831160018114610f795760008415610f615750858301515b600019600386901b1c1916600185901b178555610f0e565b600085815260208120601f198616915b82811015610fa857888601518255948401946001909101908401610f89565b5085821015610fc65787850151600019600388901b60f8161c191681555b5050505050600190811b01905550565b600060018201610fe857610fe8610e99565b5060010190565b81810381811115610ec257610ec2610e99565b634e487b7160e01b600052603260045260246000fdfea26469706673582212200ee95238f3258fe1274678696fc2eb492efed70f4eee906d2760de16d03f511b64736f6c63430008110033",
  "linkReferences": {},
  "deployedLinkReferences": {}
}